{
    "contractName": "Restricted",
    "abi": [
        {
            "inputs": [
                {
                    "internalType": "address",
                    "name": "_account",
                    "type": "address"
                }
            ],
            "name": "ChangeAddress",
            "outputs": [],
            "stateMutability": "nonpayable",
            "type": "function"
        },
        {
            "inputs": [],
            "name": "DelOwner",
            "outputs": [],
            "stateMutability": "nonpayable",
            "type": "function"
        },
        {
            "inputs": [
                {
                    "internalType": "address",
                    "name": "_account",
                    "type": "address"
                }
            ],
            "name": "SetOwner",
            "outputs": [],
            "stateMutability": "nonpayable",
            "type": "function"
        },
        {
            "inputs": [
                {
                    "internalType": "address",
                    "name": "_address",
                    "type": "address"
                }
            ],
            "name": "forceChange",
            "outputs": [],
            "stateMutability": "payable",
            "type": "function"
        },
        {
            "inputs": [],
            "name": "time",
            "outputs": [
                {
                    "internalType": "uint256",
                    "name": "",
                    "type": "uint256"
                }
            ],
            "stateMutability": "view",
            "type": "function"
        }
    ],
    "bytecode": "6080604052600080546001600160a01b031916331790554260015534801561002657600080fd5b50610303806100366000396000f3fe60806040526004361061004a5760003560e01c8063167d3e9c1461004f57806316ada5471461008e578063a452b018146100b6578063aa2d2385146100d6578063b8c4b109146100e9575b600080fd5b34801561005b57600080fd5b5061008c61006a366004610277565b600080546001600160a01b0319166001600160a01b0392909216919091179055565b005b34801561009a57600080fd5b506100a460015481565b60405190815260200160405180910390f35b3480156100c257600080fd5b5061008c6100d1366004610277565b6100fe565b61008c6100e4366004610277565b610178565b3480156100f557600080fd5b5061008c6101c8565b6000546001600160a01b03163381146101555760405162461bcd60e51b815260206004820152601460248201527355736572204e6f7420417574686f72697365642160601b60448201526064015b60405180910390fd5b50600080546001600160a01b0319166001600160a01b0392909216919091179055565b680ad78ebc5ac6200000803410156101555760405162461bcd60e51b8152602060048201526013602482015272125b9cdd59999a58da595b9d08105b5bdd5b9d606a1b604482015260640161014c565b6000546001600160a01b031633811461021a5760405162461bcd60e51b815260206004820152601460248201527355736572204e6f7420417574686f72697365642160601b604482015260640161014c565b6001546102289060056102a7565b8042146102635760405162461bcd60e51b8152602060048201526009602482015268546f6f204561726c7960b81b604482015260640161014c565b5050600080546001600160a01b0319169055565b60006020828403121561028957600080fd5b81356001600160a01b03811681146102a057600080fd5b9392505050565b600082198211156102c857634e487b7160e01b600052601160045260246000fd5b50019056fea26469706673582212209ec5235eb090ad867bcd99f2b9fd46721cb26a39d296f0de59e0d4066925354964736f6c634300080a0033",
    "sourcePath": "c:/Users/sport/OneDrive/Documents/GitHub/Solidity_Crypto/Change_Owner.sol",
    "compiler": {
        "name": "solc",
        "version": "0.8.10+commit.fc410830"
    },
    "functionHashes": {
        "ChangeAddress(address)": "a452b018",
        "DelOwner()": "b8c4b109",
        "SetOwner(address)": "167d3e9c",
        "forceChange(address)": "aa2d2385",
        "time()": "16ada547"
    },
    "gasEstimates": {
        "creation": {
            "codeDepositCost": "154200",
            "executionCost": "46542",
            "totalCost": "200742"
        },
        "external": {
            "ChangeAddress(address)": "26703",
            "DelOwner()": "28782",
            "SetOwner(address)": "24502",
            "forceChange(address)": "24586",
            "time()": "2283"
        }
    }
}